{
	"data": {
		"bytecode": {
			"linkReferences": {},
			"object": "61053d61004d600b8282823980515f1a6073146041577f4e487b71000000000000000000000000000000000000000000000000000000005f525f60045260245ffd5b305f52607381538281f3fe730000000000000000000000000000000000000000301460806040526004361061004a575f3560e01c80634068d74c1461004e5780635fab395f1461006c5780636e5b6b281461008a575b5f80fd5b6100566100ba565b604051610063919061022c565b60405180910390f35b61007461015f565b604051610081919061022c565b60405180910390f35b6100a4600480360381019061009f9190610273565b6101e6565b6040516100b1919061022c565b60405180910390f35b5f8073694aa1769357215de4fac081bf1f309adc32530690505f8173ffffffffffffffffffffffffffffffffffffffff1663feaf968c6040518163ffffffff1660e01b815260040160a060405180830381865afa15801561011d573d5f803e3d5ffd5b505050506040513d601f19601f820116820180604052508101906101419190610324565b5050509150506402540be4008161015891906103c8565b9250505090565b5f73694aa1769357215de4fac081bf1f309adc32530673ffffffffffffffffffffffffffffffffffffffff166354fd4d506040518163ffffffff1660e01b8152600401602060405180830381865afa1580156101bd573d5f803e3d5ffd5b505050506040513d601f19601f820116820180604052508101906101e1919061043e565b905090565b5f670de0b6b3a7640000826101f96100ba565b6102039190610469565b61020d91906104d7565b9050919050565b5f819050919050565b61022681610214565b82525050565b5f60208201905061023f5f83018461021d565b92915050565b5f80fd5b61025281610214565b811461025c575f80fd5b50565b5f8135905061026d81610249565b92915050565b5f6020828403121561028857610287610245565b5b5f6102958482850161025f565b91505092915050565b5f69ffffffffffffffffffff82169050919050565b6102bc8161029e565b81146102c6575f80fd5b50565b5f815190506102d7816102b3565b92915050565b5f819050919050565b6102ef816102dd565b81146102f9575f80fd5b50565b5f8151905061030a816102e6565b92915050565b5f8151905061031e81610249565b92915050565b5f805f805f60a0868803121561033d5761033c610245565b5b5f61034a888289016102c9565b955050602061035b888289016102fc565b945050604061036c88828901610310565b935050606061037d88828901610310565b925050608061038e888289016102c9565b9150509295509295909350565b7f4e487b71000000000000000000000000000000000000000000000000000000005f52601160045260245ffd5b5f6103d2826102dd565b91506103dd836102dd565b92508282026103eb816102dd565b91507f800000000000000000000000000000000000000000000000000000000000000084145f841216156104225761042161039b565b5b82820584148315176104375761043661039b565b5b5092915050565b5f6020828403121561045357610452610245565b5b5f61046084828501610310565b91505092915050565b5f61047382610214565b915061047e83610214565b925082820261048c81610214565b915082820484148315176104a3576104a261039b565b5b5092915050565b7f4e487b71000000000000000000000000000000000000000000000000000000005f52601260045260245ffd5b5f6104e182610214565b91506104ec83610214565b9250826104fc576104fb6104aa565b5b82820490509291505056fea2646970667358221220674a5607c768f14c6fb2949a2464ec27c50318412a22a112a3777ba0ceb61e9d64736f6c634300081a0033",
			"opcodes": "PUSH2 0x53D PUSH2 0x4D PUSH1 0xB DUP3 DUP3 DUP3 CODECOPY DUP1 MLOAD PUSH0 BYTE PUSH1 0x73 EQ PUSH1 0x41 JUMPI PUSH32 0x4E487B7100000000000000000000000000000000000000000000000000000000 PUSH0 MSTORE PUSH0 PUSH1 0x4 MSTORE PUSH1 0x24 PUSH0 REVERT JUMPDEST ADDRESS PUSH0 MSTORE PUSH1 0x73 DUP2 MSTORE8 DUP3 DUP2 RETURN INVALID PUSH20 0x0 ADDRESS EQ PUSH1 0x80 PUSH1 0x40 MSTORE PUSH1 0x4 CALLDATASIZE LT PUSH2 0x4A JUMPI PUSH0 CALLDATALOAD PUSH1 0xE0 SHR DUP1 PUSH4 0x4068D74C EQ PUSH2 0x4E JUMPI DUP1 PUSH4 0x5FAB395F EQ PUSH2 0x6C JUMPI DUP1 PUSH4 0x6E5B6B28 EQ PUSH2 0x8A JUMPI JUMPDEST PUSH0 DUP1 REVERT JUMPDEST PUSH2 0x56 PUSH2 0xBA JUMP JUMPDEST PUSH1 0x40 MLOAD PUSH2 0x63 SWAP2 SWAP1 PUSH2 0x22C JUMP JUMPDEST PUSH1 0x40 MLOAD DUP1 SWAP2 SUB SWAP1 RETURN JUMPDEST PUSH2 0x74 PUSH2 0x15F JUMP JUMPDEST PUSH1 0x40 MLOAD PUSH2 0x81 SWAP2 SWAP1 PUSH2 0x22C JUMP JUMPDEST PUSH1 0x40 MLOAD DUP1 SWAP2 SUB SWAP1 RETURN JUMPDEST PUSH2 0xA4 PUSH1 0x4 DUP1 CALLDATASIZE SUB DUP2 ADD SWAP1 PUSH2 0x9F SWAP2 SWAP1 PUSH2 0x273 JUMP JUMPDEST PUSH2 0x1E6 JUMP JUMPDEST PUSH1 0x40 MLOAD PUSH2 0xB1 SWAP2 SWAP1 PUSH2 0x22C JUMP JUMPDEST PUSH1 0x40 MLOAD DUP1 SWAP2 SUB SWAP1 RETURN JUMPDEST PUSH0 DUP1 PUSH20 0x694AA1769357215DE4FAC081BF1F309ADC325306 SWAP1 POP PUSH0 DUP2 PUSH20 0xFFFFFFFFFFFFFFFFFFFFFFFFFFFFFFFFFFFFFFFF AND PUSH4 0xFEAF968C PUSH1 0x40 MLOAD DUP2 PUSH4 0xFFFFFFFF AND PUSH1 0xE0 SHL DUP2 MSTORE PUSH1 0x4 ADD PUSH1 0xA0 PUSH1 0x40 MLOAD DUP1 DUP4 SUB DUP2 DUP7 GAS STATICCALL ISZERO DUP1 ISZERO PUSH2 0x11D JUMPI RETURNDATASIZE PUSH0 DUP1 RETURNDATACOPY RETURNDATASIZE PUSH0 REVERT JUMPDEST POP POP POP POP PUSH1 0x40 MLOAD RETURNDATASIZE PUSH1 0x1F NOT PUSH1 0x1F DUP3 ADD AND DUP3 ADD DUP1 PUSH1 0x40 MSTORE POP DUP2 ADD SWAP1 PUSH2 0x141 SWAP2 SWAP1 PUSH2 0x324 JUMP JUMPDEST POP POP POP SWAP2 POP POP PUSH5 0x2540BE400 DUP2 PUSH2 0x158 SWAP2 SWAP1 PUSH2 0x3C8 JUMP JUMPDEST SWAP3 POP POP POP SWAP1 JUMP JUMPDEST PUSH0 PUSH20 0x694AA1769357215DE4FAC081BF1F309ADC325306 PUSH20 0xFFFFFFFFFFFFFFFFFFFFFFFFFFFFFFFFFFFFFFFF AND PUSH4 0x54FD4D50 PUSH1 0x40 MLOAD DUP2 PUSH4 0xFFFFFFFF AND PUSH1 0xE0 SHL DUP2 MSTORE PUSH1 0x4 ADD PUSH1 0x20 PUSH1 0x40 MLOAD DUP1 DUP4 SUB DUP2 DUP7 GAS STATICCALL ISZERO DUP1 ISZERO PUSH2 0x1BD JUMPI RETURNDATASIZE PUSH0 DUP1 RETURNDATACOPY RETURNDATASIZE PUSH0 REVERT JUMPDEST POP POP POP POP PUSH1 0x40 MLOAD RETURNDATASIZE PUSH1 0x1F NOT PUSH1 0x1F DUP3 ADD AND DUP3 ADD DUP1 PUSH1 0x40 MSTORE POP DUP2 ADD SWAP1 PUSH2 0x1E1 SWAP2 SWAP1 PUSH2 0x43E JUMP JUMPDEST SWAP1 POP SWAP1 JUMP JUMPDEST PUSH0 PUSH8 0xDE0B6B3A7640000 DUP3 PUSH2 0x1F9 PUSH2 0xBA JUMP JUMPDEST PUSH2 0x203 SWAP2 SWAP1 PUSH2 0x469 JUMP JUMPDEST PUSH2 0x20D SWAP2 SWAP1 PUSH2 0x4D7 JUMP JUMPDEST SWAP1 POP SWAP2 SWAP1 POP JUMP JUMPDEST PUSH0 DUP2 SWAP1 POP SWAP2 SWAP1 POP JUMP JUMPDEST PUSH2 0x226 DUP2 PUSH2 0x214 JUMP JUMPDEST DUP3 MSTORE POP POP JUMP JUMPDEST PUSH0 PUSH1 0x20 DUP3 ADD SWAP1 POP PUSH2 0x23F PUSH0 DUP4 ADD DUP5 PUSH2 0x21D JUMP JUMPDEST SWAP3 SWAP2 POP POP JUMP JUMPDEST PUSH0 DUP1 REVERT JUMPDEST PUSH2 0x252 DUP2 PUSH2 0x214 JUMP JUMPDEST DUP2 EQ PUSH2 0x25C JUMPI PUSH0 DUP1 REVERT JUMPDEST POP JUMP JUMPDEST PUSH0 DUP2 CALLDATALOAD SWAP1 POP PUSH2 0x26D DUP2 PUSH2 0x249 JUMP JUMPDEST SWAP3 SWAP2 POP POP JUMP JUMPDEST PUSH0 PUSH1 0x20 DUP3 DUP5 SUB SLT ISZERO PUSH2 0x288 JUMPI PUSH2 0x287 PUSH2 0x245 JUMP JUMPDEST JUMPDEST PUSH0 PUSH2 0x295 DUP5 DUP3 DUP6 ADD PUSH2 0x25F JUMP JUMPDEST SWAP2 POP POP SWAP3 SWAP2 POP POP JUMP JUMPDEST PUSH0 PUSH10 0xFFFFFFFFFFFFFFFFFFFF DUP3 AND SWAP1 POP SWAP2 SWAP1 POP JUMP JUMPDEST PUSH2 0x2BC DUP2 PUSH2 0x29E JUMP JUMPDEST DUP2 EQ PUSH2 0x2C6 JUMPI PUSH0 DUP1 REVERT JUMPDEST POP JUMP JUMPDEST PUSH0 DUP2 MLOAD SWAP1 POP PUSH2 0x2D7 DUP2 PUSH2 0x2B3 JUMP JUMPDEST SWAP3 SWAP2 POP POP JUMP JUMPDEST PUSH0 DUP2 SWAP1 POP SWAP2 SWAP1 POP JUMP JUMPDEST PUSH2 0x2EF DUP2 PUSH2 0x2DD JUMP JUMPDEST DUP2 EQ PUSH2 0x2F9 JUMPI PUSH0 DUP1 REVERT JUMPDEST POP JUMP JUMPDEST PUSH0 DUP2 MLOAD SWAP1 POP PUSH2 0x30A DUP2 PUSH2 0x2E6 JUMP JUMPDEST SWAP3 SWAP2 POP POP JUMP JUMPDEST PUSH0 DUP2 MLOAD SWAP1 POP PUSH2 0x31E DUP2 PUSH2 0x249 JUMP JUMPDEST SWAP3 SWAP2 POP POP JUMP JUMPDEST PUSH0 DUP1 PUSH0 DUP1 PUSH0 PUSH1 0xA0 DUP7 DUP9 SUB SLT ISZERO PUSH2 0x33D JUMPI PUSH2 0x33C PUSH2 0x245 JUMP JUMPDEST JUMPDEST PUSH0 PUSH2 0x34A DUP9 DUP3 DUP10 ADD PUSH2 0x2C9 JUMP JUMPDEST SWAP6 POP POP PUSH1 0x20 PUSH2 0x35B DUP9 DUP3 DUP10 ADD PUSH2 0x2FC JUMP JUMPDEST SWAP5 POP POP PUSH1 0x40 PUSH2 0x36C DUP9 DUP3 DUP10 ADD PUSH2 0x310 JUMP JUMPDEST SWAP4 POP POP PUSH1 0x60 PUSH2 0x37D DUP9 DUP3 DUP10 ADD PUSH2 0x310 JUMP JUMPDEST SWAP3 POP POP PUSH1 0x80 PUSH2 0x38E DUP9 DUP3 DUP10 ADD PUSH2 0x2C9 JUMP JUMPDEST SWAP2 POP POP SWAP3 SWAP6 POP SWAP3 SWAP6 SWAP1 SWAP4 POP JUMP JUMPDEST PUSH32 0x4E487B7100000000000000000000000000000000000000000000000000000000 PUSH0 MSTORE PUSH1 0x11 PUSH1 0x4 MSTORE PUSH1 0x24 PUSH0 REVERT JUMPDEST PUSH0 PUSH2 0x3D2 DUP3 PUSH2 0x2DD JUMP JUMPDEST SWAP2 POP PUSH2 0x3DD DUP4 PUSH2 0x2DD JUMP JUMPDEST SWAP3 POP DUP3 DUP3 MUL PUSH2 0x3EB DUP2 PUSH2 0x2DD JUMP JUMPDEST SWAP2 POP PUSH32 0x8000000000000000000000000000000000000000000000000000000000000000 DUP5 EQ PUSH0 DUP5 SLT AND ISZERO PUSH2 0x422 JUMPI PUSH2 0x421 PUSH2 0x39B JUMP JUMPDEST JUMPDEST DUP3 DUP3 SDIV DUP5 EQ DUP4 ISZERO OR PUSH2 0x437 JUMPI PUSH2 0x436 PUSH2 0x39B JUMP JUMPDEST JUMPDEST POP SWAP3 SWAP2 POP POP JUMP JUMPDEST PUSH0 PUSH1 0x20 DUP3 DUP5 SUB SLT ISZERO PUSH2 0x453 JUMPI PUSH2 0x452 PUSH2 0x245 JUMP JUMPDEST JUMPDEST PUSH0 PUSH2 0x460 DUP5 DUP3 DUP6 ADD PUSH2 0x310 JUMP JUMPDEST SWAP2 POP POP SWAP3 SWAP2 POP POP JUMP JUMPDEST PUSH0 PUSH2 0x473 DUP3 PUSH2 0x214 JUMP JUMPDEST SWAP2 POP PUSH2 0x47E DUP4 PUSH2 0x214 JUMP JUMPDEST SWAP3 POP DUP3 DUP3 MUL PUSH2 0x48C DUP2 PUSH2 0x214 JUMP JUMPDEST SWAP2 POP DUP3 DUP3 DIV DUP5 EQ DUP4 ISZERO OR PUSH2 0x4A3 JUMPI PUSH2 0x4A2 PUSH2 0x39B JUMP JUMPDEST JUMPDEST POP SWAP3 SWAP2 POP POP JUMP JUMPDEST PUSH32 0x4E487B7100000000000000000000000000000000000000000000000000000000 PUSH0 MSTORE PUSH1 0x12 PUSH1 0x4 MSTORE PUSH1 0x24 PUSH0 REVERT JUMPDEST PUSH0 PUSH2 0x4E1 DUP3 PUSH2 0x214 JUMP JUMPDEST SWAP2 POP PUSH2 0x4EC DUP4 PUSH2 0x214 JUMP JUMPDEST SWAP3 POP DUP3 PUSH2 0x4FC JUMPI PUSH2 0x4FB PUSH2 0x4AA JUMP JUMPDEST JUMPDEST DUP3 DUP3 DIV SWAP1 POP SWAP3 SWAP2 POP POP JUMP INVALID LOG2 PUSH5 0x6970667358 0x22 SLT KECCAK256 PUSH8 0x4A5607C768F14C6F 0xB2 SWAP5 SWAP11 0x24 PUSH5 0xEC27C50318 COINBASE 0x2A 0x22 LOG1 SLT LOG3 PUSH24 0x7BA0CEB61E9D64736F6C634300081A003300000000000000 "
		},
		"gasEstimates": {
			"creation": {
				"codeDepositCost": "268200",
				"executionCost": "332",
				"totalCost": "268532"
			},
			"external": {
				"Getversion()": "infinite",
				"getConversionRate(uint256)": "infinite",
				"priceinusd()": "infinite"
			}
		},
		"methodIdentifiers": {
			"Getversion()": "5fab395f",
			"getConversionRate(uint256)": "6e5b6b28",
			"priceinusd()": "4068d74c"
		}
	},
	"abi": [
		{
			"inputs": [],
			"name": "Getversion",
			"outputs": [
				{
					"internalType": "uint256",
					"name": "",
					"type": "uint256"
				}
			],
			"stateMutability": "view",
			"type": "function"
		},
		{
			"inputs": [
				{
					"internalType": "uint256",
					"name": "ethAmount",
					"type": "uint256"
				}
			],
			"name": "getConversionRate",
			"outputs": [
				{
					"internalType": "uint256",
					"name": "",
					"type": "uint256"
				}
			],
			"stateMutability": "view",
			"type": "function"
		},
		{
			"inputs": [],
			"name": "priceinusd",
			"outputs": [
				{
					"internalType": "uint256",
					"name": "",
					"type": "uint256"
				}
			],
			"stateMutability": "view",
			"type": "function"
		}
	]
}